:020000003A299B
:10000800FF00030E8301EB000A08EC008A018B1C39
:1000180010280130C7008B106C088A006B0E830013
:06002800FF0E7F0E09002F
:0E002E00533083120313FD00FD0B1B28080046
:10003C00243083120313FC00B530FD00FD0B242883
:0A004C00FC0B24280000000008004F
:0C00560000000000000000000000080096
:1000620083160313A21B3828831206133A2883121D
:1000720006178316221B40288312861142288312F8
:1000820086158316A21A4828831206114A2883125B
:1000920006158316221A50288312861052288312BC
:1000A20086146A18562806165728061286162B201A
:1000B20086128316A21960288312061362288312FD
:1000C2000617831622196828831286116A2883125A
:1000D20086158316A21870288312061172288312BD
:1000E2000615831622187828831286107A2883121E
:1000F20086146A187E2806167F28061286162B207A
:0E01020086126A1C86281E20872817200800F7
:0E0110008312031369088A0068088200080041
:10011E00831203136A1083162108A20031206A1479
:02012E000800C7
:100130008316031386120612861006118611061303
:1001400083128612061206138611061186101E20CF
:100150001E201E200615861486162B2086121E20B1
:1001600086162B2086121E2086162B2086121E2015
:10017000861086162B2086121E2086162B208612AD
:100180000611061786162B2086121E2006138614CB
:1001900086162B208612861086162B2086121E208D
:1001A00086162B208612861486162B2086121E2079
:1001B000861086162B2086120617861506158614BD
:0C01C00086162B2086121E206A140800F0
:1001CC00F828803083120313ED000B29C030ED00AA
:1001DC000B299430ED000B29D430ED000B29803025
:1001EC00ED000B29831203136D08013A0319E7285C
:1001FC006D08023A0319EC286D08033A0319EF282D
:10020C006D08043A0319F228F5286E03F0006D0806
:10021C00F0077008ED0070088316A20031206A10F8
:10022C008316A001200883126F07840000080319AD
:10023C002B298316200883126F078400000883166D
:10024C00A1008F208316A00A182983126A140800B3
:10025C0088208A110A128000840AE80A0319E90A24
:08026C00F003031D2E29080018
:100274002222013083160313860088018312880129
:10028400831601130B168B170330FB008A30FC0016
:100294005530FD00FD0B4C29FC0B4C29FB0B4C2964
:1002A40000000000982001308316A20031200C3099
:1002B4008316A2003120470803196D2988010130F3
:1002C4008316A20031200130ED000130EE004830E9
:1002D400EF00E6206C290130880001308316A2006B
:1002E40031200130ED000130EE005A30EF00E620FD
:1002F4000230ED000130EE005430EF00E6207F3094
:10030400FB00D430FC003130FD00FD0B8729FC0BD1
:100314008729FB0B87290000000002308800013088
:100324008316A20031200130ED000130EE002430AC
:10033400EF00E6200230ED000130EE002030EF0047
:10034400E6207F30FB00D430FC003130FD00FD0B93
:10035400A929FC0BA929FB0BA929000000000430E2
:10036400880001308316A20031200130ED000130F5
:10037400EE003230EF00E6200230ED000130EE00F6
:100384004030EF00E6203330FB00BB30FC00DF30B0
:10039400FD00FD0BCB29FC0BCB29FB0BCB2900006B
:0603A40000005D29D429D0
:1004440020308400483083120313F000DA30E800CF
:080454000130E9002E2108002F
:0803B400523445344434003496
:1003BC0054347234613466346634693463342034B2
:0C03CC004C3469346734683474340034F5
:1003D8005434723461346634663469346334203496
:0C03E8004C3469346734683474340034D9
:0E03F400593445344C344C344F3457340034B3
:020402000034C4
:100404005434723461346634663469346334203469
:080414004F3446344634003435
:0C041C0047345234453445344E3400342B
:100428005434723461346634663469346334203445
:0C0438004C346934673468347434003488
:02400E004A2F37
:00000001FF
